{
  "_format": "hh-sol-artifact-1",
  "contractName": "EduVerify",
  "sourceName": "contracts/EduVerify.sol",
  "abi": [
    {
      "inputs": [],
      "stateMutability": "nonpayable",
      "type": "constructor"
    },
    {
      "inputs": [
        {
          "internalType": "address",
          "name": "owner",
          "type": "address"
        }
      ],
      "name": "OwnableInvalidOwner",
      "type": "error"
    },
    {
      "inputs": [
        {
          "internalType": "address",
          "name": "account",
          "type": "address"
        }
      ],
      "name": "OwnableUnauthorizedAccount",
      "type": "error"
    },
    {
      "anonymous": false,
      "inputs": [
        {
          "indexed": true,
          "internalType": "address",
          "name": "student",
          "type": "address"
        },
        {
          "indexed": true,
          "internalType": "address",
          "name": "institution",
          "type": "address"
        },
        {
          "indexed": false,
          "internalType": "bytes32",
          "name": "certificateId",
          "type": "bytes32"
        },
        {
          "indexed": false,
          "internalType": "string",
          "name": "ipfsHash",
          "type": "string"
        }
      ],
      "name": "CertificateIssued",
      "type": "event"
    },
    {
      "anonymous": false,
      "inputs": [
        {
          "indexed": true,
          "internalType": "address",
          "name": "student",
          "type": "address"
        },
        {
          "indexed": false,
          "internalType": "bytes32",
          "name": "certificateId",
          "type": "bytes32"
        }
      ],
      "name": "CertificateRevoked",
      "type": "event"
    },
    {
      "anonymous": false,
      "inputs": [
        {
          "indexed": true,
          "internalType": "address",
          "name": "student",
          "type": "address"
        },
        {
          "indexed": false,
          "internalType": "bytes32",
          "name": "certificateId",
          "type": "bytes32"
        },
        {
          "indexed": false,
          "internalType": "string",
          "name": "newHash",
          "type": "string"
        }
      ],
      "name": "CertificateUpdated",
      "type": "event"
    },
    {
      "anonymous": false,
      "inputs": [
        {
          "indexed": true,
          "internalType": "address",
          "name": "institution",
          "type": "address"
        }
      ],
      "name": "InstitutionApproved",
      "type": "event"
    },
    {
      "anonymous": false,
      "inputs": [
        {
          "indexed": true,
          "internalType": "address",
          "name": "previousOwner",
          "type": "address"
        },
        {
          "indexed": true,
          "internalType": "address",
          "name": "newOwner",
          "type": "address"
        }
      ],
      "name": "OwnershipTransferred",
      "type": "event"
    },
    {
      "anonymous": false,
      "inputs": [
        {
          "indexed": true,
          "internalType": "address",
          "name": "student",
          "type": "address"
        }
      ],
      "name": "StudentAdded",
      "type": "event"
    },
    {
      "inputs": [
        {
          "internalType": "address",
          "name": "institution",
          "type": "address"
        }
      ],
      "name": "approveInstitution",
      "outputs": [],
      "stateMutability": "nonpayable",
      "type": "function"
    },
    {
      "inputs": [
        {
          "internalType": "address",
          "name": "student",
          "type": "address"
        }
      ],
      "name": "getCertificateCount",
      "outputs": [
        {
          "internalType": "uint256",
          "name": "",
          "type": "uint256"
        }
      ],
      "stateMutability": "view",
      "type": "function"
    },
    {
      "inputs": [
        {
          "internalType": "address",
          "name": "student",
          "type": "address"
        }
      ],
      "name": "getCertificates",
      "outputs": [
        {
          "components": [
            {
              "internalType": "bytes32",
              "name": "certificateId",
              "type": "bytes32"
            },
            {
              "internalType": "string",
              "name": "ipfsHash",
              "type": "string"
            },
            {
              "internalType": "address",
              "name": "issuedTo",
              "type": "address"
            },
            {
              "internalType": "address",
              "name": "issuedBy",
              "type": "address"
            },
            {
              "internalType": "uint256",
              "name": "issuedAt",
              "type": "uint256"
            },
            {
              "internalType": "uint256",
              "name": "expiresAt",
              "type": "uint256"
            },
            {
              "internalType": "bool",
              "name": "isRevoked",
              "type": "bool"
            }
          ],
          "internalType": "struct EduVerify.Certificate[]",
          "name": "",
          "type": "tuple[]"
        }
      ],
      "stateMutability": "view",
      "type": "function"
    },
    {
      "inputs": [
        {
          "internalType": "address",
          "name": "",
          "type": "address"
        }
      ],
      "name": "isApprovedInstitution",
      "outputs": [
        {
          "internalType": "bool",
          "name": "",
          "type": "bool"
        }
      ],
      "stateMutability": "view",
      "type": "function"
    },
    {
      "inputs": [
        {
          "internalType": "address",
          "name": "student",
          "type": "address"
        },
        {
          "internalType": "uint256",
          "name": "index",
          "type": "uint256"
        }
      ],
      "name": "isCertificateValid",
      "outputs": [
        {
          "internalType": "bool",
          "name": "",
          "type": "bool"
        }
      ],
      "stateMutability": "view",
      "type": "function"
    },
    {
      "inputs": [
        {
          "internalType": "address",
          "name": "",
          "type": "address"
        }
      ],
      "name": "isStudent",
      "outputs": [
        {
          "internalType": "bool",
          "name": "",
          "type": "bool"
        }
      ],
      "stateMutability": "view",
      "type": "function"
    },
    {
      "inputs": [
        {
          "internalType": "address",
          "name": "student",
          "type": "address"
        },
        {
          "internalType": "string",
          "name": "ipfsHash",
          "type": "string"
        },
        {
          "internalType": "uint256",
          "name": "expiresAt",
          "type": "uint256"
        }
      ],
      "name": "issueCertificate",
      "outputs": [],
      "stateMutability": "nonpayable",
      "type": "function"
    },
    {
      "inputs": [],
      "name": "owner",
      "outputs": [
        {
          "internalType": "address",
          "name": "",
          "type": "address"
        }
      ],
      "stateMutability": "view",
      "type": "function"
    },
    {
      "inputs": [
        {
          "internalType": "address",
          "name": "student",
          "type": "address"
        }
      ],
      "name": "registerStudent",
      "outputs": [],
      "stateMutability": "nonpayable",
      "type": "function"
    },
    {
      "inputs": [],
      "name": "renounceOwnership",
      "outputs": [],
      "stateMutability": "nonpayable",
      "type": "function"
    },
    {
      "inputs": [
        {
          "internalType": "address",
          "name": "student",
          "type": "address"
        },
        {
          "internalType": "uint256",
          "name": "index",
          "type": "uint256"
        }
      ],
      "name": "revokeCertificate",
      "outputs": [],
      "stateMutability": "nonpayable",
      "type": "function"
    },
    {
      "inputs": [
        {
          "internalType": "address",
          "name": "newOwner",
          "type": "address"
        }
      ],
      "name": "transferOwnership",
      "outputs": [],
      "stateMutability": "nonpayable",
      "type": "function"
    },
    {
      "inputs": [
        {
          "internalType": "address",
          "name": "student",
          "type": "address"
        },
        {
          "internalType": "uint256",
          "name": "index",
          "type": "uint256"
        },
        {
          "internalType": "string",
          "name": "newIpfsHash",
          "type": "string"
        }
      ],
      "name": "updateCertificateHash",
      "outputs": [],
      "stateMutability": "nonpayable",
      "type": "function"
    },
    {
      "inputs": [
        {
          "internalType": "string",
          "name": "ipfsHash",
          "type": "string"
        },
        {
          "internalType": "address",
          "name": "student",
          "type": "address"
        },
        {
          "internalType": "uint256",
          "name": "index",
          "type": "uint256"
        }
      ],
      "name": "verifyCertificateByHash",
      "outputs": [
        {
          "internalType": "bool",
          "name": "",
          "type": "bool"
        }
      ],
      "stateMutability": "view",
      "type": "function"
    }
  ],
  "bytecode": "0x60806040523480156200001157600080fd5b5033600073ffffffffffffffffffffffffffffffffffffffff168173ffffffffffffffffffffffffffffffffffffffff1603620000885760006040517f1e4fbdf70000000000000000000000000000000000000000000000000000000081526004016200007f9190620001a9565b60405180910390fd5b6200009981620000a060201b60201c565b50620001c6565b60008060009054906101000a900473ffffffffffffffffffffffffffffffffffffffff169050816000806101000a81548173ffffffffffffffffffffffffffffffffffffffff021916908373ffffffffffffffffffffffffffffffffffffffff1602179055508173ffffffffffffffffffffffffffffffffffffffff168173ffffffffffffffffffffffffffffffffffffffff167f8be0079c531659141344cd1fd0a4f28419497f9722a3daafe3b4186f6b6457e060405160405180910390a35050565b600073ffffffffffffffffffffffffffffffffffffffff82169050919050565b6000620001918262000164565b9050919050565b620001a38162000184565b82525050565b6000602082019050620001c0600083018462000198565b92915050565b6129de80620001d66000396000f3fe608060405234801561001057600080fd5b50600436106100ea5760003560e01c8063a07330eb1161008c578063cc3a2a0711610066578063cc3a2a0714610247578063ee5354a514610277578063f1c49c6214610293578063f2fde38b146102c3576100ea565b8063a07330eb146101cb578063b1d5ccf8146101fb578063c7573e821461022b576100ea565b8063715018a6116100c8578063715018a61461014357806382f7d3921461014d5780638da5cb5b1461017d57806391f51f721461019b576100ea565b806327524145146100ef5780632fd9b7021461010b578063704b3eb814610127575b600080fd5b61010960048036038101906101049190611af7565b6102df565b005b61012560048036038101906101209190611b66565b6105e6565b005b610141600480360381019061013c9190611b93565b6106fa565b005b61014b610b33565b005b61016760048036038101906101629190611b66565b610b47565b6040516101749190611c1d565b60405180910390f35b610185610b67565b6040516101929190611c47565b60405180910390f35b6101b560048036038101906101b09190611b66565b610b90565b6040516101c29190611c1d565b60405180910390f35b6101e560048036038101906101e09190611c62565b610bb0565b6040516101f29190611c1d565b60405180910390f35b61021560048036038101906102109190611b66565b610e49565b6040516102229190611cb1565b60405180910390f35b61024560048036038101906102409190611b66565b610e95565b005b610261600480360381019061025c9190611ccc565b610faa565b60405161026e9190611c1d565b60405180910390f35b610291600480360381019061028c9190611c62565b61129f565b005b6102ad60048036038101906102a89190611b66565b61151b565b6040516102ba9190611f5e565b60405180910390f35b6102dd60048036038101906102d89190611b66565b611730565b005b600160003373ffffffffffffffffffffffffffffffffffffffff1673ffffffffffffffffffffffffffffffffffffffff16815260200190815260200160002060009054906101000a900460ff1661036b576040517f08c379a000000000000000000000000000000000000000000000000000000000815260040161036290612003565b60405180910390fd5b600360008473ffffffffffffffffffffffffffffffffffffffff1673ffffffffffffffffffffffffffffffffffffffff1681526020019081526020016000208054905082106103ef576040517f08c379a00000000000000000000000000000000000000000000000000000000081526004016103e69061206f565b60405180910390fd5b6000600360008573ffffffffffffffffffffffffffffffffffffffff1673ffffffffffffffffffffffffffffffffffffffff16815260200190815260200160002083815481106104425761044161208f565b5b906000526020600020906007020190503373ffffffffffffffffffffffffffffffffffffffff168160030160009054906101000a900473ffffffffffffffffffffffffffffffffffffffff1673ffffffffffffffffffffffffffffffffffffffff16146104e4576040517f08c379a00000000000000000000000000000000000000000000000000000000081526004016104db9061210a565b60405180910390fd5b8060060160009054906101000a900460ff1615610536576040517f08c379a000000000000000000000000000000000000000000000000000000000815260040161052d9061219c565b60405180910390fd5b600082511161057a576040517f08c379a000000000000000000000000000000000000000000000000000000000815260040161057190612208565b60405180910390fd5b8181600101908161058b9190612434565b508373ffffffffffffffffffffffffffffffffffffffff167f572b49c73d47e47e2c975aa3eda4407e8ee6283d2b7e8bca598aeb413e53ac9b8260000154846040516105d892919061254e565b60405180910390a250505050565b6105ee6117b6565b600073ffffffffffffffffffffffffffffffffffffffff168173ffffffffffffffffffffffffffffffffffffffff160361065d576040517f08c379a0000000000000000000000000000000000000000000000000000000008152600401610654906125ca565b60405180910390fd5b60018060008373ffffffffffffffffffffffffffffffffffffffff1673ffffffffffffffffffffffffffffffffffffffff16815260200190815260200160002060006101000a81548160ff0219169083151502179055508073ffffffffffffffffffffffffffffffffffffffff167f3c812296d47260e06ffa717271575b5c0485292e248839ac0df0d9a4910e3e9f60405160405180910390a250565b600160003373ffffffffffffffffffffffffffffffffffffffff1673ffffffffffffffffffffffffffffffffffffffff16815260200190815260200160002060009054906101000a900460ff16610786576040517f08c379a000000000000000000000000000000000000000000000000000000000815260040161077d90612003565b60405180910390fd5b600260008473ffffffffffffffffffffffffffffffffffffffff1673ffffffffffffffffffffffffffffffffffffffff16815260200190815260200160002060009054906101000a900460ff16610812576040517f08c379a00000000000000000000000000000000000000000000000000000000081526004016108099061265c565b60405180910390fd5b6000825111610856576040517f08c379a000000000000000000000000000000000000000000000000000000000815260040161084d906126c8565b60405180910390fd5b600083834260405160200161086d9392919061278d565b6040516020818303038152906040528051906020012090506004600082815260200190815260200160002060009054906101000a900460ff16156108e6576040517f08c379a00000000000000000000000000000000000000000000000000000000081526004016108dd90612812565b60405180910390fd5b60006040518060e001604052808381526020018581526020018673ffffffffffffffffffffffffffffffffffffffff1681526020013373ffffffffffffffffffffffffffffffffffffffff168152602001428152602001848152602001600015158152509050600360008673ffffffffffffffffffffffffffffffffffffffff1673ffffffffffffffffffffffffffffffffffffffff1681526020019081526020016000208190806001815401808255809150506001900390600052602060002090600702016000909190919091506000820151816000015560208201518160010190816109d49190612434565b5060408201518160020160006101000a81548173ffffffffffffffffffffffffffffffffffffffff021916908373ffffffffffffffffffffffffffffffffffffffff16021790555060608201518160030160006101000a81548173ffffffffffffffffffffffffffffffffffffffff021916908373ffffffffffffffffffffffffffffffffffffffff1602179055506080820151816004015560a0820151816005015560c08201518160060160006101000a81548160ff021916908315150217905550505060016004600084815260200190815260200160002060006101000a81548160ff0219169083151502179055503373ffffffffffffffffffffffffffffffffffffffff168573ffffffffffffffffffffffffffffffffffffffff167f807a9ad597a6353ddf5a783133932d0f19220bc8a634295aef214df64d1b7da78487604051610b2492919061254e565b60405180910390a35050505050565b610b3b6117b6565b610b45600061183d565b565b60026020528060005260406000206000915054906101000a900460ff1681565b60008060009054906101000a900473ffffffffffffffffffffffffffffffffffffffff16905090565b60016020528060005260406000206000915054906101000a900460ff1681565b6000600360008473ffffffffffffffffffffffffffffffffffffffff1673ffffffffffffffffffffffffffffffffffffffff168152602001908152602001600020805490508210610c36576040517f08c379a0000000000000000000000000000000000000000000000000000000008152600401610c2d9061206f565b60405180910390fd5b6000600360008573ffffffffffffffffffffffffffffffffffffffff1673ffffffffffffffffffffffffffffffffffffffff1681526020019081526020016000208381548110610c8957610c8861208f565b5b90600052602060002090600702016040518060e001604052908160008201548152602001600182018054610cbc90612257565b80601f0160208091040260200160405190810160405280929190818152602001828054610ce890612257565b8015610d355780601f10610d0a57610100808354040283529160200191610d35565b820191906000526020600020905b815481529060010190602001808311610d1857829003601f168201915b505050505081526020016002820160009054906101000a900473ffffffffffffffffffffffffffffffffffffffff1673ffffffffffffffffffffffffffffffffffffffff1673ffffffffffffffffffffffffffffffffffffffff1681526020016003820160009054906101000a900473ffffffffffffffffffffffffffffffffffffffff1673ffffffffffffffffffffffffffffffffffffffff1673ffffffffffffffffffffffffffffffffffffffff16815260200160048201548152602001600582015481526020016006820160009054906101000a900460ff16151515158152505090508060c00151158015610e40575060008160a001511480610e3f57508060a001514211155b5b91505092915050565b6000600360008373ffffffffffffffffffffffffffffffffffffffff1673ffffffffffffffffffffffffffffffffffffffff168152602001908152602001600020805490509050919050565b610e9d6117b6565b600073ffffffffffffffffffffffffffffffffffffffff168173ffffffffffffffffffffffffffffffffffffffff1603610f0c576040517f08c379a0000000000000000000000000000000000000000000000000000000008152600401610f039061287e565b60405180910390fd5b6001600260008373ffffffffffffffffffffffffffffffffffffffff1673ffffffffffffffffffffffffffffffffffffffff16815260200190815260200160002060006101000a81548160ff0219169083151502179055508073ffffffffffffffffffffffffffffffffffffffff167f0e247955258b6547e8cccc2c23a51bde067ec81cbc12b12ee10ee47f2e333a4b60405160405180910390a250565b6000600360008473ffffffffffffffffffffffffffffffffffffffff1673ffffffffffffffffffffffffffffffffffffffff168152602001908152602001600020805490508210611030576040517f08c379a00000000000000000000000000000000000000000000000000000000081526004016110279061206f565b60405180910390fd5b6000600360008573ffffffffffffffffffffffffffffffffffffffff1673ffffffffffffffffffffffffffffffffffffffff16815260200190815260200160002083815481106110835761108261208f565b5b90600052602060002090600702016040518060e0016040529081600082015481526020016001820180546110b690612257565b80601f01602080910402602001604051908101604052809291908181526020018280546110e290612257565b801561112f5780601f106111045761010080835404028352916020019161112f565b820191906000526020600020905b81548152906001019060200180831161111257829003601f168201915b505050505081526020016002820160009054906101000a900473ffffffffffffffffffffffffffffffffffffffff1673ffffffffffffffffffffffffffffffffffffffff1673ffffffffffffffffffffffffffffffffffffffff1681526020016003820160009054906101000a900473ffffffffffffffffffffffffffffffffffffffff1673ffffffffffffffffffffffffffffffffffffffff1673ffffffffffffffffffffffffffffffffffffffff16815260200160048201548152602001600582015481526020016006820160009054906101000a900460ff161515151581525050905084604051602001611226919061289e565b604051602081830303815290604052805190602001208160200151604051602001611251919061289e565b6040516020818303038152906040528051906020012014801561127657508060c00151155b8015611295575060008160a00151148061129457508060a001514211155b5b9150509392505050565b600360008373ffffffffffffffffffffffffffffffffffffffff1673ffffffffffffffffffffffffffffffffffffffff168152602001908152602001600020805490508110611323576040517f08c379a000000000000000000000000000000000000000000000000000000000815260040161131a9061206f565b60405180910390fd5b6000600360008473ffffffffffffffffffffffffffffffffffffffff1673ffffffffffffffffffffffffffffffffffffffff16815260200190815260200160002082815481106113765761137561208f565b5b9060005260206000209060070201905061138e610b67565b73ffffffffffffffffffffffffffffffffffffffff163373ffffffffffffffffffffffffffffffffffffffff16148061141657508060030160009054906101000a900473ffffffffffffffffffffffffffffffffffffffff1673ffffffffffffffffffffffffffffffffffffffff163373ffffffffffffffffffffffffffffffffffffffff16145b611455576040517f08c379a000000000000000000000000000000000000000000000000000000000815260040161144c90612901565b60405180910390fd5b8060060160009054906101000a900460ff16156114a7576040517f08c379a000000000000000000000000000000000000000000000000000000000815260040161149e9061296d565b60405180910390fd5b60018160060160006101000a81548160ff0219169083151502179055508273ffffffffffffffffffffffffffffffffffffffff167f16e15024b75c1a44a4fdc8bf0618b080dccd8897d187afcc98a9bc771313369b826000015460405161150e919061298d565b60405180910390a2505050565b6060600360008373ffffffffffffffffffffffffffffffffffffffff1673ffffffffffffffffffffffffffffffffffffffff168152602001908152602001600020805480602002602001604051908101604052809291908181526020016000905b8282101561172557838290600052602060002090600702016040518060e0016040529081600082015481526020016001820180546115b990612257565b80601f01602080910402602001604051908101604052809291908181526020018280546115e590612257565b80156116325780601f1061160757610100808354040283529160200191611632565b820191906000526020600020905b81548152906001019060200180831161161557829003601f168201915b505050505081526020016002820160009054906101000a900473ffffffffffffffffffffffffffffffffffffffff1673ffffffffffffffffffffffffffffffffffffffff1673ffffffffffffffffffffffffffffffffffffffff1681526020016003820160009054906101000a900473ffffffffffffffffffffffffffffffffffffffff1673ffffffffffffffffffffffffffffffffffffffff1673ffffffffffffffffffffffffffffffffffffffff16815260200160048201548152602001600582015481526020016006820160009054906101000a900460ff1615151515815250508152602001906001019061157c565b505050509050919050565b6117386117b6565b600073ffffffffffffffffffffffffffffffffffffffff168173ffffffffffffffffffffffffffffffffffffffff16036117aa5760006040517f1e4fbdf70000000000000000000000000000000000000000000000000000000081526004016117a19190611c47565b60405180910390fd5b6117b38161183d565b50565b6117be611901565b73ffffffffffffffffffffffffffffffffffffffff166117dc610b67565b73ffffffffffffffffffffffffffffffffffffffff161461183b576117ff611901565b6040517f118cdaa70000000000000000000000000000000000000000000000000000000081526004016118329190611c47565b60405180910390fd5b565b60008060009054906101000a900473ffffffffffffffffffffffffffffffffffffffff169050816000806101000a81548173ffffffffffffffffffffffffffffffffffffffff021916908373ffffffffffffffffffffffffffffffffffffffff1602179055508173ffffffffffffffffffffffffffffffffffffffff168173ffffffffffffffffffffffffffffffffffffffff167f8be0079c531659141344cd1fd0a4f28419497f9722a3daafe3b4186f6b6457e060405160405180910390a35050565b600033905090565b6000604051905090565b600080fd5b600080fd5b600073ffffffffffffffffffffffffffffffffffffffff82169050919050565b60006119488261191d565b9050919050565b6119588161193d565b811461196357600080fd5b50565b6000813590506119758161194f565b92915050565b6000819050919050565b61198e8161197b565b811461199957600080fd5b50565b6000813590506119ab81611985565b92915050565b600080fd5b600080fd5b6000601f19601f8301169050919050565b7f4e487b7100000000000000000000000000000000000000000000000000000000600052604160045260246000fd5b611a04826119bb565b810181811067ffffffffffffffff82111715611a2357611a226119cc565b5b80604052505050565b6000611a36611909565b9050611a4282826119fb565b919050565b600067ffffffffffffffff821115611a6257611a616119cc565b5b611a6b826119bb565b9050602081019050919050565b82818337600083830152505050565b6000611a9a611a9584611a47565b611a2c565b905082815260208101848484011115611ab657611ab56119b6565b5b611ac1848285611a78565b509392505050565b600082601f830112611ade57611add6119b1565b5b8135611aee848260208601611a87565b91505092915050565b600080600060608486031215611b1057611b0f611913565b5b6000611b1e86828701611966565b9350506020611b2f8682870161199c565b925050604084013567ffffffffffffffff811115611b5057611b4f611918565b5b611b5c86828701611ac9565b9150509250925092565b600060208284031215611b7c57611b7b611913565b5b6000611b8a84828501611966565b91505092915050565b600080600060608486031215611bac57611bab611913565b5b6000611bba86828701611966565b935050602084013567ffffffffffffffff811115611bdb57611bda611918565b5b611be786828701611ac9565b9250506040611bf88682870161199c565b9150509250925092565b60008115159050919050565b611c1781611c02565b82525050565b6000602082019050611c326000830184611c0e565b92915050565b611c418161193d565b82525050565b6000602082019050611c5c6000830184611c38565b92915050565b60008060408385031215611c7957611c78611913565b5b6000611c8785828601611966565b9250506020611c988582860161199c565b9150509250929050565b611cab8161197b565b82525050565b6000602082019050611cc66000830184611ca2565b92915050565b600080600060608486031215611ce557611ce4611913565b5b600084013567ffffffffffffffff811115611d0357611d02611918565b5b611d0f86828701611ac9565b9350506020611d2086828701611966565b9250506040611d318682870161199c565b9150509250925092565b600081519050919050565b600082825260208201905092915050565b6000819050602082019050919050565b6000819050919050565b611d7a81611d67565b82525050565b600081519050919050565b600082825260208201905092915050565b60005b83811015611dba578082015181840152602081019050611d9f565b60008484015250505050565b6000611dd182611d80565b611ddb8185611d8b565b9350611deb818560208601611d9c565b611df4816119bb565b840191505092915050565b611e088161193d565b82525050565b611e178161197b565b82525050565b611e2681611c02565b82525050565b600060e083016000830151611e446000860182611d71565b5060208301518482036020860152611e5c8282611dc6565b9150506040830151611e716040860182611dff565b506060830151611e846060860182611dff565b506080830151611e976080860182611e0e565b5060a0830151611eaa60a0860182611e0e565b5060c0830151611ebd60c0860182611e1d565b508091505092915050565b6000611ed48383611e2c565b905092915050565b6000602082019050919050565b6000611ef482611d3b565b611efe8185611d46565b935083602082028501611f1085611d57565b8060005b85811015611f4c5784840389528151611f2d8582611ec8565b9450611f3883611edc565b925060208a01995050600181019050611f14565b50829750879550505050505092915050565b60006020820190508181036000830152611f788184611ee9565b905092915050565b600082825260208201905092915050565b7f43616c6c6572206973206e6f7420616e20617070726f76656420696e7374697460008201527f7574696f6e000000000000000000000000000000000000000000000000000000602082015250565b6000611fed602583611f80565b9150611ff882611f91565b604082019050919050565b6000602082019050818103600083015261201c81611fe0565b9050919050565b7f496e76616c696420636572746966696361746520696e64657800000000000000600082015250565b6000612059601983611f80565b915061206482612023565b602082019050919050565b600060208201905081810360008301526120888161204c565b9050919050565b7f4e487b7100000000000000000000000000000000000000000000000000000000600052603260045260246000fd5b7f4e6f742074686520636572746966696361746520697373756572000000000000600082015250565b60006120f4601a83611f80565b91506120ff826120be565b602082019050919050565b60006020820190508181036000830152612123816120e7565b9050919050565b7f43616e6e6f7420757064617465207265766f6b6564206365727469666963617460008201527f6500000000000000000000000000000000000000000000000000000000000000602082015250565b6000612186602183611f80565b91506121918261212a565b604082019050919050565b600060208201905081810360008301526121b581612179565b9050919050565b7f4e6577204950465320686173682063616e6e6f7420626520656d707479000000600082015250565b60006121f2601d83611f80565b91506121fd826121bc565b602082019050919050565b60006020820190508181036000830152612221816121e5565b9050919050565b7f4e487b7100000000000000000000000000000000000000000000000000000000600052602260045260246000fd5b6000600282049050600182168061226f57607f821691505b60208210810361228257612281612228565b5b50919050565b60008190508160005260206000209050919050565b60006020601f8301049050919050565b600082821b905092915050565b6000600883026122ea7fffffffffffffffffffffffffffffffffffffffffffffffffffffffffffffffff826122ad565b6122f486836122ad565b95508019841693508086168417925050509392505050565b6000819050919050565b600061233161232c6123278461197b565b61230c565b61197b565b9050919050565b6000819050919050565b61234b83612316565b61235f61235782612338565b8484546122ba565b825550505050565b600090565b612374612367565b61237f818484612342565b505050565b5b818110156123a35761239860008261236c565b600181019050612385565b5050565b601f8211156123e8576123b981612288565b6123c28461229d565b810160208510156123d1578190505b6123e56123dd8561229d565b830182612384565b50505b505050565b600082821c905092915050565b600061240b600019846008026123ed565b1980831691505092915050565b600061242483836123fa565b9150826002028217905092915050565b61243d82611d80565b67ffffffffffffffff811115612456576124556119cc565b5b6124608254612257565b61246b8282856123a7565b600060209050601f83116001811461249e576000841561248c578287015190505b6124968582612418565b8655506124fe565b601f1984166124ac86612288565b60005b828110156124d4578489015182556001820191506020850194506020810190506124af565b868310156124f157848901516124ed601f8916826123fa565b8355505b6001600288020188555050505b505050505050565b61250f81611d67565b82525050565b600061252082611d80565b61252a8185611f80565b935061253a818560208601611d9c565b612543816119bb565b840191505092915050565b60006040820190506125636000830185612506565b81810360208301526125758184612515565b90509392505050565b7f496e76616c696420696e737469747574696f6e20616464726573730000000000600082015250565b60006125b4601b83611f80565b91506125bf8261257e565b602082019050919050565b600060208201905081810360008301526125e3816125a7565b9050919050565b7f526563697069656e74206973206e6f742061207265676973746572656420737460008201527f7564656e74000000000000000000000000000000000000000000000000000000602082015250565b6000612646602583611f80565b9150612651826125ea565b604082019050919050565b6000602082019050818103600083015261267581612639565b9050919050565b7f4950465320686173682063616e6e6f7420626520656d70747900000000000000600082015250565b60006126b2601983611f80565b91506126bd8261267c565b602082019050919050565b600060208201905081810360008301526126e1816126a5565b9050919050565b60008160601b9050919050565b6000612700826126e8565b9050919050565b6000612712826126f5565b9050919050565b61272a6127258261193d565b612707565b82525050565b600081905092915050565b600061274682611d80565b6127508185612730565b9350612760818560208601611d9c565b80840191505092915050565b6000819050919050565b6127876127828261197b565b61276c565b82525050565b60006127998286612719565b6014820191506127a9828561273b565b91506127b58284612776565b602082019150819050949350505050565b7f436572746966696361746520494420616c726561647920657869737473000000600082015250565b60006127fc601d83611f80565b9150612807826127c6565b602082019050919050565b6000602082019050818103600083015261282b816127ef565b9050919050565b7f496e76616c69642073747564656e742061646472657373000000000000000000600082015250565b6000612868601783611f80565b915061287382612832565b602082019050919050565b600060208201905081810360008301526128978161285b565b9050919050565b60006128aa828461273b565b915081905092915050565b7f556e617574686f72697a656420746f207265766f6b6500000000000000000000600082015250565b60006128eb601683611f80565b91506128f6826128b5565b602082019050919050565b6000602082019050818103600083015261291a816128de565b9050919050565b7f436572746966696361746520616c7265616479207265766f6b65640000000000600082015250565b6000612957601b83611f80565b915061296282612921565b602082019050919050565b600060208201905081810360008301526129868161294a565b9050919050565b60006020820190506129a26000830184612506565b9291505056fea26469706673582212205482bda68dda77ae0137ea68eb66fa6004d1e1f4e4bfee8bde85fb5c9bbddd4664736f6c63430008140033",
  "linkReferences": {},
  "deployedLinkReferences": {}
}